:080000000C942A000C9400008E
:100008000C9400000C9400000C9400000C94000068
:100018000C9400000C9400000C9400000C94000058
:100028000C9400000C9400000C9400000C94000048
:100038000C9400000C9400000C9400000C94000038
:100048000C9400000C9400000C940000F894EE2727
:10005800ECBBF1E0FBBFEBBFE5BF8DE0A2E0BB2747
:10006800ED938A95E9F780E094E0A0E6ED93019797
:10007800E9F7EFE5EDBFE4E0EEBFC0E6D1E00C94B0
:100088004500E0E0EABBEFEFE4BBE0E0E5BB10E0F1
:1000980036D0EA27E12711F4A89801C0A89A2FD0F2
:1000A800EA230E2E2CD032D036D0EA27E12711F4DD
:1000B800A99801C0A99A2FD0EA230E2E2CD026D0B9
:1000C80031D0EA27E12711F4AA9801C0AA9A2AD0C8
:1000D800EA230E2E27D01AD02CD0EA27E12711F4D4
:1000E800AB9801C0AB9A25D0EA230E2E22D00ED0B1
:1000F800103011F4AC9801C0AC9AC9CFFFCFA0E082
:10010800C899A1E0E0E0CC99E1E00895EA27E1236D
:10011800E0291E2F0895A0E0C999A1E0E0E0CD995B
:10012800E1E00895A0E0CA99A1E0E0E0CE99E1E01D
:100138000895A0E0CB99A1E0E0E0CF99E1E008952F
:00000001FF
